{
  "_format": "hh-sol-artifact-1",
  "contractName": "LearnToEarn",
  "sourceName": "contracts/LearnToEarn.sol",
  "abi": [
    {
      "inputs": [
        {
          "internalType": "uint256",
          "name": "_sessions",
          "type": "uint256"
        }
      ],
      "stateMutability": "nonpayable",
      "type": "constructor"
    },
    {
      "anonymous": false,
      "inputs": [
        {
          "indexed": true,
          "internalType": "address",
          "name": "student",
          "type": "address"
        }
      ],
      "name": "Completed",
      "type": "event"
    },
    {
      "inputs": [],
      "name": "allComplete",
      "outputs": [
        {
          "internalType": "bool",
          "name": "",
          "type": "bool"
        },
        {
          "internalType": "uint256",
          "name": "",
          "type": "uint256"
        }
      ],
      "stateMutability": "nonpayable",
      "type": "function"
    },
    {
      "inputs": [],
      "name": "closeRegistration",
      "outputs": [],
      "stateMutability": "nonpayable",
      "type": "function"
    },
    {
      "inputs": [
        {
          "internalType": "uint256",
          "name": "",
          "type": "uint256"
        }
      ],
      "name": "cohort",
      "outputs": [
        {
          "internalType": "address",
          "name": "wallet",
          "type": "address"
        },
        {
          "internalType": "uint256",
          "name": "lastping",
          "type": "uint256"
        },
        {
          "internalType": "uint256",
          "name": "tuitionFee",
          "type": "uint256"
        },
        {
          "internalType": "uint256",
          "name": "pingcount",
          "type": "uint256"
        },
        {
          "internalType": "bool",
          "name": "completed",
          "type": "bool"
        }
      ],
      "stateMutability": "view",
      "type": "function"
    },
    {
      "inputs": [
        {
          "internalType": "address",
          "name": "_target",
          "type": "address"
        }
      ],
      "name": "isStudent",
      "outputs": [
        {
          "internalType": "bool",
          "name": "",
          "type": "bool"
        },
        {
          "internalType": "uint256",
          "name": "",
          "type": "uint256"
        }
      ],
      "stateMutability": "view",
      "type": "function"
    },
    {
      "inputs": [],
      "name": "open",
      "outputs": [
        {
          "internalType": "bool",
          "name": "",
          "type": "bool"
        }
      ],
      "stateMutability": "view",
      "type": "function"
    },
    {
      "inputs": [
        {
          "internalType": "uint256",
          "name": "_totalInterest",
          "type": "uint256"
        }
      ],
      "name": "payAll",
      "outputs": [],
      "stateMutability": "nonpayable",
      "type": "function"
    },
    {
      "inputs": [],
      "name": "ping",
      "outputs": [],
      "stateMutability": "nonpayable",
      "type": "function"
    },
    {
      "inputs": [],
      "name": "provost",
      "outputs": [
        {
          "internalType": "address",
          "name": "",
          "type": "address"
        }
      ],
      "stateMutability": "view",
      "type": "function"
    },
    {
      "inputs": [],
      "name": "register",
      "outputs": [],
      "stateMutability": "payable",
      "type": "function"
    },
    {
      "inputs": [],
      "name": "sessions",
      "outputs": [
        {
          "internalType": "uint256",
          "name": "",
          "type": "uint256"
        }
      ],
      "stateMutability": "view",
      "type": "function"
    },
    {
      "inputs": [],
      "name": "totalDeposit",
      "outputs": [
        {
          "internalType": "uint256",
          "name": "",
          "type": "uint256"
        }
      ],
      "stateMutability": "view",
      "type": "function"
    }
  ],
  "bytecode": "0x60806040523480156200001157600080fd5b506040516200188f3803806200188f8339818101604052810190620000379190620000b7565b806001819055506001600260006101000a81548160ff021916908315150217905550336000806101000a81548173ffffffffffffffffffffffffffffffffffffffff021916908373ffffffffffffffffffffffffffffffffffffffff1602179055505062000107565b600081519050620000b181620000ed565b92915050565b600060208284031215620000ca57600080fd5b6000620000da84828501620000a0565b91505092915050565b6000819050919050565b620000f881620000e3565b81146200010457600080fd5b50565b61177880620001176000396000f3fe60806040526004361061009c5760003560e01c806382f7d3921161006457806382f7d39214610130578063c89868df1461016e578063d4aadbc614610199578063d79b1a6c146101c2578063f6153ccd14610203578063fcfff16f1461022e5761009c565b80631aa3a008146100a15780631b91acea146100ab5780635c36b186146100d65780637dc673bc146100ed5780638224fb4914610104575b600080fd5b6100a9610259565b005b3480156100b757600080fd5b506100c061043d565b6040516100cd91906112e7565b60405180910390f35b3480156100e257600080fd5b506100eb610461565b005b3480156100f957600080fd5b50610102610709565b005b34801561011057600080fd5b5061011961080a565b604051610127929190611370565b60405180910390f35b34801561013c57600080fd5b5061015760048036038101906101529190610f21565b6109e9565b604051610165929190611370565b60405180910390f35b34801561017a57600080fd5b50610183610ac9565b60405161019091906114d9565b60405180910390f35b3480156101a557600080fd5b506101c060048036038101906101bb9190610f4a565b610acf565b005b3480156101ce57600080fd5b506101e960048036038101906101e49190610f4a565b610de6565b6040516101fa959493929190611302565b60405180910390f35b34801561020f57600080fd5b50610218610e59565b60405161022591906114d9565b60405180910390f35b34801561023a57600080fd5b50610243610ee4565b6040516102509190611355565b60405180910390f35b60011515600260009054906101000a900460ff161515146102af576040517f08c379a00000000000000000000000000000000000000000000000000000000081526004016102a6906113b9565b60405180910390fd5b60006102ba336109e9565b5090506000151581151514610304576040517f08c379a00000000000000000000000000000000000000000000000000000000081526004016102fb90611459565b60405180910390fd5b60003411610347576040517f08c379a000000000000000000000000000000000000000000000000000000000815260040161033e90611479565b60405180910390fd5b60036040518060a001604052803373ffffffffffffffffffffffffffffffffffffffff1681526020014281526020013481526020016000815260200160001515815250908060018154018082558091505060019003906000526020600020906005020160009091909190915060008201518160000160006101000a81548173ffffffffffffffffffffffffffffffffffffffff021916908373ffffffffffffffffffffffffffffffffffffffff16021790555060208201518160010155604082015181600201556060820151816003015560808201518160040160006101000a81548160ff021916908315150217905550505050565b60008054906101000a900473ffffffffffffffffffffffffffffffffffffffff1681565b60008061046d336109e9565b9150915060011515821515146104b8576040517f08c379a00000000000000000000000000000000000000000000000000000000081526004016104af90611499565b60405180910390fd5b60001515600382815481106104f6577f4e487b7100000000000000000000000000000000000000000000000000000000600052603260045260246000fd5b906000526020600020906005020160040160009054906101000a900460ff16151514610557576040517f08c379a000000000000000000000000000000000000000000000000000000000815260040161054e906113d9565b60405180910390fd5b4260038281548110610592577f4e487b7100000000000000000000000000000000000000000000000000000000600052603260045260246000fd5b906000526020600020906005020160010181905550600381815481106105e1577f4e487b7100000000000000000000000000000000000000000000000000000000600052603260045260246000fd5b906000526020600020906005020160030160008154809291906106039061166d565b919050555060015460038281548110610645577f4e487b7100000000000000000000000000000000000000000000000000000000600052603260045260246000fd5b906000526020600020906005020160030154141561070557600160038281548110610699577f4e487b7100000000000000000000000000000000000000000000000000000000600052603260045260246000fd5b906000526020600020906005020160040160006101000a81548160ff0219169083151502179055503373ffffffffffffffffffffffffffffffffffffffff167fa1026cbe28583bb9d49fa77a384dd9ae2610003b8b30e30bc20452c1e16a0a4460405160405180910390a25b5050565b60008054906101000a900473ffffffffffffffffffffffffffffffffffffffff1673ffffffffffffffffffffffffffffffffffffffff163373ffffffffffffffffffffffffffffffffffffffff1614610797576040517f08c379a000000000000000000000000000000000000000000000000000000000815260040161078e90611419565b60405180910390fd5b60011515600260009054906101000a900460ff161515146107ed576040517f08c379a00000000000000000000000000000000000000000000000000000000081526004016107e490611399565b60405180910390fd5b6000600260006101000a81548160ff021916908315150217905550565b60008060008060005b6003805490508110156109c6576003818154811061085a577f4e487b7100000000000000000000000000000000000000000000000000000000600052603260045260246000fd5b906000526020600020906005020160030154826108779190611510565b91506203f480600382815481106108b7577f4e487b7100000000000000000000000000000000000000000000000000000000600052603260045260246000fd5b906000526020600020906005020160010154426108d491906115f1565b111561093f57600160038281548110610916577f4e487b7100000000000000000000000000000000000000000000000000000000600052603260045260246000fd5b906000526020600020906005020160040160006101000a81548160ff0219169083151502179055505b600115156003828154811061097d577f4e487b7100000000000000000000000000000000000000000000000000000000600052603260045260246000fd5b906000526020600020906005020160040160009054906101000a900460ff16151514156109b35782806109af9061166d565b9350505b80806109be9061166d565b915050610813565b5060038054905082146109db576000806109df565b6001815b9350935050509091565b60008060005b600380549050811015610abb578373ffffffffffffffffffffffffffffffffffffffff1660038281548110610a4d577f4e487b7100000000000000000000000000000000000000000000000000000000600052603260045260246000fd5b906000526020600020906005020160000160009054906101000a900473ffffffffffffffffffffffffffffffffffffffff1673ffffffffffffffffffffffffffffffffffffffff161415610aa8576001819250925050610ac4565b8080610ab39061166d565b9150506109ef565b50600080915091505b915091565b60015481565b6000610ad961080a565b5090506000610ae6610e59565b90506001151582151514610b2f576040517f08c379a0000000000000000000000000000000000000000000000000000000008152600401610b26906113f9565b60405180910390fd5b60001515600260009054906101000a900460ff16151514610b85576040517f08c379a0000000000000000000000000000000000000000000000000000000008152600401610b7c90611439565b60405180910390fd5b60005b600380549050811015610de057600060015460038381548110610bd4577f4e487b7100000000000000000000000000000000000000000000000000000000600052603260045260246000fd5b906000526020600020906005020160030154610bf09190611566565b8360038481548110610c2b577f4e487b7100000000000000000000000000000000000000000000000000000000600052603260045260246000fd5b906000526020600020906005020160020154610c479190611566565b86610c529190611597565b610c5c9190611597565b60038381548110610c96577f4e487b7100000000000000000000000000000000000000000000000000000000600052603260045260246000fd5b906000526020600020906005020160020154610cb29190611510565b9050600060038381548110610cf0577f4e487b7100000000000000000000000000000000000000000000000000000000600052603260045260246000fd5b906000526020600020906005020160000160009054906101000a900473ffffffffffffffffffffffffffffffffffffffff1673ffffffffffffffffffffffffffffffffffffffff1682604051610d45906112d2565b60006040518083038185875af1925050503d8060008114610d82576040519150601f19603f3d011682016040523d82523d6000602084013e610d87565b606091505b5050905080610dcb576040517f08c379a0000000000000000000000000000000000000000000000000000000008152600401610dc2906114b9565b60405180910390fd5b50508080610dd89061166d565b915050610b88565b50505050565b60038181548110610df657600080fd5b90600052602060002090600502016000915090508060000160009054906101000a900473ffffffffffffffffffffffffffffffffffffffff16908060010154908060020154908060030154908060040160009054906101000a900460ff16905085565b6000806000905060005b600380549050811015610edc5760038181548110610eaa577f4e487b7100000000000000000000000000000000000000000000000000000000600052603260045260246000fd5b90600052602060002090600502016002015482610ec79190611510565b91508080610ed49061166d565b915050610e63565b508091505090565b600260009054906101000a900460ff1681565b600081359050610f0681611714565b92915050565b600081359050610f1b8161172b565b92915050565b600060208284031215610f3357600080fd5b6000610f4184828501610ef7565b91505092915050565b600060208284031215610f5c57600080fd5b6000610f6a84828501610f0c565b91505092915050565b610f7c81611625565b82525050565b610f8b81611637565b82525050565b6000610f9e602e836114ff565b91507f526567697374726174696f6e20666f72207468697320636f686f72742069732060008301527f616c726561647920636c6f7365640000000000000000000000000000000000006020830152604082019050919050565b6000611004602e836114ff565b91507f54686520636f686f7274206973206e6f7720636c6f7365642c2074727920616760008301527f61696e206e6578742074696d65210000000000000000000000000000000000006020830152604082019050919050565b600061106a6025836114ff565b91507f596f75206861766520616c726561647920636f6d706c6574656420746865206360008301527f6f757273650000000000000000000000000000000000000000000000000000006020830152604082019050919050565b60006110d0601f836114ff565b91507f4e6f7420616c6c2073747564656e7473206861766520636f6d706c65746564006000830152602082019050919050565b60006111106017836114ff565b91507f596f7520617265206e6f74207468652070726f766f73740000000000000000006000830152602082019050919050565b60006111506022836114ff565b91507f436f686f7274207374696c6c206f70656e20666f72207265676973747261746960008301527f6f6e0000000000000000000000000000000000000000000000000000000000006020830152604082019050919050565b60006111b6601a836114ff565b91507f596f752061726520616c726561647920726567697374657265640000000000006000830152602082019050919050565b60006111f66000836114f4565b9150600082019050919050565b6000611210601b836114ff565b91507f506c656173652070617920736f6d652074756974696f6e2066656500000000006000830152602082019050919050565b60006112506015836114ff565b91507f596f7520617265206e6f7420612073747564656e7400000000000000000000006000830152602082019050919050565b6000611290600e836114ff565b91507f4661696c656420746f2073656e640000000000000000000000000000000000006000830152602082019050919050565b6112cc81611663565b82525050565b60006112dd826111e9565b9150819050919050565b60006020820190506112fc6000830184610f73565b92915050565b600060a0820190506113176000830188610f73565b61132460208301876112c3565b61133160408301866112c3565b61133e60608301856112c3565b61134b6080830184610f82565b9695505050505050565b600060208201905061136a6000830184610f82565b92915050565b60006040820190506113856000830185610f82565b61139260208301846112c3565b9392505050565b600060208201905081810360008301526113b281610f91565b9050919050565b600060208201905081810360008301526113d281610ff7565b9050919050565b600060208201905081810360008301526113f28161105d565b9050919050565b60006020820190508181036000830152611412816110c3565b9050919050565b6000602082019050818103600083015261143281611103565b9050919050565b6000602082019050818103600083015261145281611143565b9050919050565b60006020820190508181036000830152611472816111a9565b9050919050565b6000602082019050818103600083015261149281611203565b9050919050565b600060208201905081810360008301526114b281611243565b9050919050565b600060208201905081810360008301526114d281611283565b9050919050565b60006020820190506114ee60008301846112c3565b92915050565b600081905092915050565b600082825260208201905092915050565b600061151b82611663565b915061152683611663565b9250827fffffffffffffffffffffffffffffffffffffffffffffffffffffffffffffffff0382111561155b5761155a6116b6565b5b828201905092915050565b600061157182611663565b915061157c83611663565b92508261158c5761158b6116e5565b5b828204905092915050565b60006115a282611663565b91506115ad83611663565b9250817fffffffffffffffffffffffffffffffffffffffffffffffffffffffffffffffff04831182151516156115e6576115e56116b6565b5b828202905092915050565b60006115fc82611663565b915061160783611663565b92508282101561161a576116196116b6565b5b828203905092915050565b600061163082611643565b9050919050565b60008115159050919050565b600073ffffffffffffffffffffffffffffffffffffffff82169050919050565b6000819050919050565b600061167882611663565b91507fffffffffffffffffffffffffffffffffffffffffffffffffffffffffffffffff8214156116ab576116aa6116b6565b5b600182019050919050565b7f4e487b7100000000000000000000000000000000000000000000000000000000600052601160045260246000fd5b7f4e487b7100000000000000000000000000000000000000000000000000000000600052601260045260246000fd5b61171d81611625565b811461172857600080fd5b50565b61173481611663565b811461173f57600080fd5b5056fea2646970667358221220884e100b969c4bda17842831094d46a9a5505f85c0d98bbfbd9a092e746daaa164736f6c63430008000033",
  "linkReferences": {},
  "deployedLinkReferences": {}
}