{
  "_format": "hh-sol-artifact-1",
  "contractName": "LearnToEarn",
  "sourceName": "contracts/LearnToEarn.sol",
  "abi": [
    {
      "inputs": [
        {
          "internalType": "address",
          "name": "_AaveInteractionAddress",
          "type": "address"
        },
        {
          "internalType": "address",
          "name": "_tokenAddress",
          "type": "address"
        },
        {
          "internalType": "address",
          "name": "_LEARNAddress",
          "type": "address"
        },
        {
          "internalType": "uint256",
          "name": "_interval",
          "type": "uint256"
        }
      ],
      "stateMutability": "nonpayable",
      "type": "constructor"
    },
    {
      "inputs": [
        {
          "internalType": "bytes",
          "name": "",
          "type": "bytes"
        }
      ],
      "name": "checkUpkeep",
      "outputs": [
        {
          "internalType": "bool",
          "name": "upkeepNeeded",
          "type": "bool"
        },
        {
          "internalType": "bytes",
          "name": "",
          "type": "bytes"
        }
      ],
      "stateMutability": "view",
      "type": "function"
    },
    {
      "inputs": [
        {
          "internalType": "address",
          "name": "stu",
          "type": "address"
        }
      ],
      "name": "getPingCount",
      "outputs": [
        {
          "internalType": "uint256",
          "name": "",
          "type": "uint256"
        }
      ],
      "stateMutability": "view",
      "type": "function"
    },
    {
      "inputs": [
        {
          "internalType": "address",
          "name": "stu",
          "type": "address"
        }
      ],
      "name": "getStudentStatus",
      "outputs": [
        {
          "internalType": "bool",
          "name": "",
          "type": "bool"
        }
      ],
      "stateMutability": "view",
      "type": "function"
    },
    {
      "inputs": [
        {
          "internalType": "address",
          "name": "stu",
          "type": "address"
        }
      ],
      "name": "getWithdrawAmount",
      "outputs": [
        {
          "internalType": "uint256",
          "name": "",
          "type": "uint256"
        }
      ],
      "stateMutability": "view",
      "type": "function"
    },
    {
      "inputs": [],
      "name": "interval",
      "outputs": [
        {
          "internalType": "uint256",
          "name": "",
          "type": "uint256"
        }
      ],
      "stateMutability": "view",
      "type": "function"
    },
    {
      "inputs": [],
      "name": "payout",
      "outputs": [],
      "stateMutability": "nonpayable",
      "type": "function"
    },
    {
      "inputs": [
        {
          "internalType": "bytes",
          "name": "",
          "type": "bytes"
        }
      ],
      "name": "performUpkeep",
      "outputs": [],
      "stateMutability": "nonpayable",
      "type": "function"
    },
    {
      "inputs": [],
      "name": "ping",
      "outputs": [],
      "stateMutability": "nonpayable",
      "type": "function"
    },
    {
      "inputs": [],
      "name": "register",
      "outputs": [],
      "stateMutability": "payable",
      "type": "function"
    },
    {
      "inputs": [
        {
          "internalType": "uint256",
          "name": "",
          "type": "uint256"
        }
      ],
      "name": "students",
      "outputs": [
        {
          "internalType": "address",
          "name": "",
          "type": "address"
        }
      ],
      "stateMutability": "view",
      "type": "function"
    },
    {
      "inputs": [
        {
          "internalType": "address",
          "name": "newOwner",
          "type": "address"
        }
      ],
      "name": "transferOwnership",
      "outputs": [],
      "stateMutability": "nonpayable",
      "type": "function"
    }
  ],
  "bytecode": "0x60e06040523480156200001157600080fd5b5060405162001fdf38038062001fdf833981810160405281019062000037919062000230565b83600860006101000a81548173ffffffffffffffffffffffffffffffffffffffff021916908373ffffffffffffffffffffffffffffffffffffffff1602179055508373ffffffffffffffffffffffffffffffffffffffff1660a08173ffffffffffffffffffffffffffffffffffffffff16815250508273ffffffffffffffffffffffffffffffffffffffff1660808173ffffffffffffffffffffffffffffffffffffffff16815250508173ffffffffffffffffffffffffffffffffffffffff1660c08173ffffffffffffffffffffffffffffffffffffffff168152505033600760006101000a81548173ffffffffffffffffffffffffffffffffffffffff021916908373ffffffffffffffffffffffffffffffffffffffff16021790555080600a81905550600a54600a54426200016f919062000300565b6200017b919062000338565b600b819055505050505062000399565b600080fd5b600073ffffffffffffffffffffffffffffffffffffffff82169050919050565b6000620001bd8262000190565b9050919050565b620001cf81620001b0565b8114620001db57600080fd5b50565b600081519050620001ef81620001c4565b92915050565b6000819050919050565b6200020a81620001f5565b81146200021657600080fd5b50565b6000815190506200022a81620001ff565b92915050565b600080600080608085870312156200024d576200024c6200018b565b5b60006200025d87828801620001de565b94505060206200027087828801620001de565b93505060406200028387828801620001de565b9250506060620002968782880162000219565b91505092959194509250565b7f4e487b7100000000000000000000000000000000000000000000000000000000600052601260045260246000fd5b7f4e487b7100000000000000000000000000000000000000000000000000000000600052601160045260246000fd5b60006200030d82620001f5565b91506200031a83620001f5565b9250826200032d576200032c620002a2565b5b828204905092915050565b60006200034582620001f5565b91506200035283620001f5565b9250817fffffffffffffffffffffffffffffffffffffffffffffffffffffffffffffffff04831182151516156200038e576200038d620002d1565b5b828202905092915050565b60805160a05160c051611bf3620003ec600039600081816103f50152818161078b0152610ad101526000818161037401526108c401526000818161048e015281816109580152610b5f0152611bf36000f3fe60806040526004361061009c5760003560e01c80635c36b186116100645780635c36b1861461018b578063612bd02b146101a257806363bd1d4a146101df5780636e04ff0d146101f6578063947a36fb14610234578063f2fde38b1461025f5761009c565b806306ead22e146100a15780631aa3a008146100de5780631bed98a3146100e85780634585e33b146101255780634ea1fcb61461014e575b600080fd5b3480156100ad57600080fd5b506100c860048036038101906100c3919061144c565b610288565b6040516100d591906114ba565b60405180910390f35b6100e66102c7565b005b3480156100f457600080fd5b5061010f600480360381019061010a9190611501565b610550565b60405161011c9190611549565b60405180910390f35b34801561013157600080fd5b5061014c600480360381019061014791906115c9565b6105a9565b005b34801561015a57600080fd5b5061017560048036038101906101709190611501565b6105f1565b6040516101829190611625565b60405180910390f35b34801561019757600080fd5b506101a0610684565b005b3480156101ae57600080fd5b506101c960048036038101906101c49190611501565b610819565b6040516101d69190611625565b60405180910390f35b3480156101eb57600080fd5b506101f4610862565b005b34801561020257600080fd5b5061021d600480360381019061021891906115c9565b610a1a565b60405161022b9291906116d9565b60405180910390f35b34801561024057600080fd5b50610249610a39565b6040516102569190611625565b60405180910390f35b34801561026b57600080fd5b5061028660048036038101906102819190611501565b610a3f565b005b6000818154811061029857600080fd5b906000526020600020016000915054906101000a900473ffffffffffffffffffffffffffffffffffffffff1681565b600015156102d433610550565b151514610316576040517f08c379a000000000000000000000000000000000000000000000000000000000815260040161030d90611766565b60405180910390fd5b60003411610359576040517f08c379a0000000000000000000000000000000000000000000000000000000008152600401610350906117d2565b60405180910390fd5b610361610b5d565b61036a33610f48565b610372610684565b7f000000000000000000000000000000000000000000000000000000000000000073ffffffffffffffffffffffffffffffffffffffff1663d0e30db0346040518263ffffffff1660e01b81526004016000604051808303818588803b1580156103da57600080fd5b505af11580156103ee573d6000803e3d6000fd5b50505050507f000000000000000000000000000000000000000000000000000000000000000073ffffffffffffffffffffffffffffffffffffffff166379c650683360023461043d9190611821565b6040518363ffffffff1660e01b815260040161045a92919061187b565b600060405180830381600087803b15801561047457600080fd5b505af1158015610488573d6000803e3d6000fd5b505050507f000000000000000000000000000000000000000000000000000000000000000073ffffffffffffffffffffffffffffffffffffffff166370a08231600860009054906101000a900473ffffffffffffffffffffffffffffffffffffffff166040518263ffffffff1660e01b815260040161050791906114ba565b602060405180830381865afa158015610524573d6000803e3d6000fd5b505050506040513d601f19601f8201168201806040525081019061054891906118b9565b600c81905550565b600080600460008473ffffffffffffffffffffffffffffffffffffffff1673ffffffffffffffffffffffffffffffffffffffff168152602001908152602001600020541461059f5760016105a2565b60005b9050919050565b600a54600b54426105ba91906118e6565b11156105ed57600a54600b60008282546105d4919061191a565b925050819055506105e3610b5d565b600d54600c819055505b5050565b6000600260008373ffffffffffffffffffffffffffffffffffffffff1673ffffffffffffffffffffffffffffffffffffffff16815260200190815260200160002054600360008473ffffffffffffffffffffffffffffffffffffffff1673ffffffffffffffffffffffffffffffffffffffff1681526020019081526020016000205461067d919061191a565b9050919050565b6001151561069133610550565b1515146106d3576040517f08c379a00000000000000000000000000000000000000000000000000000000081526004016106ca906119bc565b60405180910390fd5b600a5460026106e29190611821565b600b546106ef919061191a565b600560003373ffffffffffffffffffffffffffffffffffffffff1673ffffffffffffffffffffffffffffffffffffffff168152602001908152602001600020819055506001600660003373ffffffffffffffffffffffffffffffffffffffff1673ffffffffffffffffffffffffffffffffffffffff1681526020019081526020016000206000828254610782919061191a565b925050819055507f000000000000000000000000000000000000000000000000000000000000000073ffffffffffffffffffffffffffffffffffffffff166379c650683360016040518363ffffffff1660e01b81526004016107e5929190611a21565b600060405180830381600087803b1580156107ff57600080fd5b505af1158015610813573d6000803e3d6000fd5b50505050565b6000600660008373ffffffffffffffffffffffffffffffffffffffff1673ffffffffffffffffffffffffffffffffffffffff168152602001908152602001600020549050919050565b61086a610b5d565b600260003373ffffffffffffffffffffffffffffffffffffffff1673ffffffffffffffffffffffffffffffffffffffff16815260200190815260200160002054600960008282546108bb91906118e6565b925050819055507f000000000000000000000000000000000000000000000000000000000000000073ffffffffffffffffffffffffffffffffffffffff166351cff8d9336040518263ffffffff1660e01b815260040161091b91906114ba565b600060405180830381600087803b15801561093557600080fd5b505af1158015610949573d6000803e3d6000fd5b50505050610956336110a7565b7f000000000000000000000000000000000000000000000000000000000000000073ffffffffffffffffffffffffffffffffffffffff166370a08231600860009054906101000a900473ffffffffffffffffffffffffffffffffffffffff166040518263ffffffff1660e01b81526004016109d191906114ba565b602060405180830381865afa1580156109ee573d6000803e3d6000fd5b505050506040513d601f19601f82011682018060405250810190610a1291906118b9565b600c81905550565b60006060600a54600b5442610a2f91906118e6565b1191509250929050565b600a5481565b3373ffffffffffffffffffffffffffffffffffffffff16600760009054906101000a900473ffffffffffffffffffffffffffffffffffffffff1673ffffffffffffffffffffffffffffffffffffffff1614610acf576040517f08c379a0000000000000000000000000000000000000000000000000000000008152600401610ac690611a96565b60405180910390fd5b7f000000000000000000000000000000000000000000000000000000000000000073ffffffffffffffffffffffffffffffffffffffff16639ae6892b826040518263ffffffff1660e01b8152600401610b2891906114ba565b600060405180830381600087803b158015610b4257600080fd5b505af1158015610b56573d6000803e3d6000fd5b5050505050565b7f000000000000000000000000000000000000000000000000000000000000000073ffffffffffffffffffffffffffffffffffffffff166370a08231600860009054906101000a900473ffffffffffffffffffffffffffffffffffffffff166040518263ffffffff1660e01b8152600401610bd891906114ba565b602060405180830381865afa158015610bf5573d6000803e3d6000fd5b505050506040513d601f19601f82011682018060405250810190610c1991906118b9565b600d819055506000600c54600d54610c3191906118e6565b905060008060005b600080549050811015610d5d576000808281548110610c5b57610c5a611ab6565b5b9060005260206000200160009054906101000a900473ffffffffffffffffffffffffffffffffffffffff1690506000600260008373ffffffffffffffffffffffffffffffffffffffff1673ffffffffffffffffffffffffffffffffffffffff16815260200190815260200160002054905042600560008473ffffffffffffffffffffffffffffffffffffffff1673ffffffffffffffffffffffffffffffffffffffff168152602001908152602001600020541015610d48576009548187610d229190611821565b610d2c9190611b14565b85610d37919061191a565b94508084610d45919061191a565b93505b50508080610d5590611b45565b915050610c39565b5060005b600080549050811015610f42576000808281548110610d8357610d82611ab6565b5b9060005260206000200160009054906101000a900473ffffffffffffffffffffffffffffffffffffffff1690506000600260008373ffffffffffffffffffffffffffffffffffffffff1673ffffffffffffffffffffffffffffffffffffffff168152602001908152602001600020549050836009541115610f2d5742600560008473ffffffffffffffffffffffffffffffffffffffff1673ffffffffffffffffffffffffffffffffffffffff1681526020019081526020016000205410610f2c576009548187610e539190611821565b610e5d9190611b14565b600360008473ffffffffffffffffffffffffffffffffffffffff1673ffffffffffffffffffffffffffffffffffffffff1681526020019081526020016000206000828254610eab919061191a565b9250508190555083600954610ec091906118e6565b8186610ecc9190611821565b610ed69190611b14565b600360008473ffffffffffffffffffffffffffffffffffffffff1673ffffffffffffffffffffffffffffffffffffffff1681526020019081526020016000206000828254610f24919061191a565b925050819055505b5b50508080610f3a90611b45565b915050610d61565b50505050565b600080549050600160008373ffffffffffffffffffffffffffffffffffffffff1673ffffffffffffffffffffffffffffffffffffffff168152602001908152602001600020819055506000819080600181540180825580915050600190039060005260206000200160009091909190916101000a81548173ffffffffffffffffffffffffffffffffffffffff021916908373ffffffffffffffffffffffffffffffffffffffff16021790555034600260008373ffffffffffffffffffffffffffffffffffffffff1673ffffffffffffffffffffffffffffffffffffffff16815260200190815260200160002081905550346009600082825461104a919061191a565b92505081905550600a54600b54611061919061191a565b600460008373ffffffffffffffffffffffffffffffffffffffff1673ffffffffffffffffffffffffffffffffffffffff1681526020019081526020016000208190555050565b6000600160008373ffffffffffffffffffffffffffffffffffffffff1673ffffffffffffffffffffffffffffffffffffffff168152602001908152602001600020549050600160008373ffffffffffffffffffffffffffffffffffffffff1673ffffffffffffffffffffffffffffffffffffffff16815260200190815260200160002060009055600260008373ffffffffffffffffffffffffffffffffffffffff1673ffffffffffffffffffffffffffffffffffffffff16815260200190815260200160002060009055600360008373ffffffffffffffffffffffffffffffffffffffff1673ffffffffffffffffffffffffffffffffffffffff16815260200190815260200160002060009055600460008373ffffffffffffffffffffffffffffffffffffffff1673ffffffffffffffffffffffffffffffffffffffff16815260200190815260200160002060009055600560008373ffffffffffffffffffffffffffffffffffffffff1673ffffffffffffffffffffffffffffffffffffffff16815260200190815260200160002060009055600660008373ffffffffffffffffffffffffffffffffffffffff1673ffffffffffffffffffffffffffffffffffffffff168152602001908152602001600020600090556000600160008054905061129191906118e6565b815481106112a2576112a1611ab6565b5b9060005260206000200160009054906101000a900473ffffffffffffffffffffffffffffffffffffffff16600082815481106112e1576112e0611ab6565b5b9060005260206000200160006101000a81548173ffffffffffffffffffffffffffffffffffffffff021916908373ffffffffffffffffffffffffffffffffffffffff160217905550600080600160008054905061133e91906118e6565b8154811061134f5761134e611ab6565b5b9060005260206000200160009054906101000a900473ffffffffffffffffffffffffffffffffffffffff16905081600160008373ffffffffffffffffffffffffffffffffffffffff1673ffffffffffffffffffffffffffffffffffffffff1681526020019081526020016000208190555060008054806113d2576113d1611b8e565b5b6001900381819060005260206000200160006101000a81549073ffffffffffffffffffffffffffffffffffffffff02191690559055505050565b600080fd5b600080fd5b6000819050919050565b61142981611416565b811461143457600080fd5b50565b60008135905061144681611420565b92915050565b6000602082840312156114625761146161140c565b5b600061147084828501611437565b91505092915050565b600073ffffffffffffffffffffffffffffffffffffffff82169050919050565b60006114a482611479565b9050919050565b6114b481611499565b82525050565b60006020820190506114cf60008301846114ab565b92915050565b6114de81611499565b81146114e957600080fd5b50565b6000813590506114fb816114d5565b92915050565b6000602082840312156115175761151661140c565b5b6000611525848285016114ec565b91505092915050565b60008115159050919050565b6115438161152e565b82525050565b600060208201905061155e600083018461153a565b92915050565b600080fd5b600080fd5b600080fd5b60008083601f84011261158957611588611564565b5b8235905067ffffffffffffffff8111156115a6576115a5611569565b5b6020830191508360018202830111156115c2576115c161156e565b5b9250929050565b600080602083850312156115e0576115df61140c565b5b600083013567ffffffffffffffff8111156115fe576115fd611411565b5b61160a85828601611573565b92509250509250929050565b61161f81611416565b82525050565b600060208201905061163a6000830184611616565b92915050565b600081519050919050565b600082825260208201905092915050565b60005b8381101561167a57808201518184015260208101905061165f565b83811115611689576000848401525b50505050565b6000601f19601f8301169050919050565b60006116ab82611640565b6116b5818561164b565b93506116c581856020860161165c565b6116ce8161168f565b840191505092915050565b60006040820190506116ee600083018561153a565b818103602083015261170081846116a0565b90509392505050565b600082825260208201905092915050565b7f596f752061726520616c72656164792072656769737465726564000000000000600082015250565b6000611750601a83611709565b915061175b8261171a565b602082019050919050565b6000602082019050818103600083015261177f81611743565b9050919050565b7f4e6f7420656e6f7567682066756e6473206465706f7369746564000000000000600082015250565b60006117bc601a83611709565b91506117c782611786565b602082019050919050565b600060208201905081810360008301526117eb816117af565b9050919050565b7f4e487b7100000000000000000000000000000000000000000000000000000000600052601160045260246000fd5b600061182c82611416565b915061183783611416565b9250817fffffffffffffffffffffffffffffffffffffffffffffffffffffffffffffffff04831182151516156118705761186f6117f2565b5b828202905092915050565b600060408201905061189060008301856114ab565b61189d6020830184611616565b9392505050565b6000815190506118b381611420565b92915050565b6000602082840312156118cf576118ce61140c565b5b60006118dd848285016118a4565b91505092915050565b60006118f182611416565b91506118fc83611416565b92508282101561190f5761190e6117f2565b5b828203905092915050565b600061192582611416565b915061193083611416565b9250827fffffffffffffffffffffffffffffffffffffffffffffffffffffffffffffffff03821115611965576119646117f2565b5b828201905092915050565b7f596f75206d757374206265207265676973746572656420746f2070696e670000600082015250565b60006119a6601e83611709565b91506119b182611970565b602082019050919050565b600060208201905081810360008301526119d581611999565b9050919050565b6000819050919050565b6000819050919050565b6000611a0b611a06611a01846119dc565b6119e6565b611416565b9050919050565b611a1b816119f0565b82525050565b6000604082019050611a3660008301856114ab565b611a436020830184611a12565b9392505050565b7f6d73672e73656e646572206d75737420626520746865206f776e657200000000600082015250565b6000611a80601c83611709565b9150611a8b82611a4a565b602082019050919050565b60006020820190508181036000830152611aaf81611a73565b9050919050565b7f4e487b7100000000000000000000000000000000000000000000000000000000600052603260045260246000fd5b7f4e487b7100000000000000000000000000000000000000000000000000000000600052601260045260246000fd5b6000611b1f82611416565b9150611b2a83611416565b925082611b3a57611b39611ae5565b5b828204905092915050565b6000611b5082611416565b91507fffffffffffffffffffffffffffffffffffffffffffffffffffffffffffffffff821415611b8357611b826117f2565b5b600182019050919050565b7f4e487b7100000000000000000000000000000000000000000000000000000000600052603160045260246000fdfea2646970667358221220d48b489784093b8d59c98cce8a3fb39122ed9db391b67b257699734b84fb2a0364736f6c634300080a0033",
  "linkReferences": {},
  "deployedLinkReferences": {}
}