{
  "_format": "hh-sol-artifact-1",
  "contractName": "InterestDistributionTest",
  "sourceName": "contracts/InterestDistributionTest.sol",
  "abi": [
    {
      "inputs": [
        {
          "internalType": "uint256",
          "name": "_interval",
          "type": "uint256"
        }
      ],
      "stateMutability": "nonpayable",
      "type": "constructor"
    },
    {
      "inputs": [
        {
          "internalType": "bytes",
          "name": "",
          "type": "bytes"
        }
      ],
      "name": "checkUpkeep",
      "outputs": [
        {
          "internalType": "bool",
          "name": "upkeepNeeded",
          "type": "bool"
        },
        {
          "internalType": "bytes",
          "name": "",
          "type": "bytes"
        }
      ],
      "stateMutability": "view",
      "type": "function"
    },
    {
      "inputs": [],
      "name": "curATokenBal",
      "outputs": [
        {
          "internalType": "uint256",
          "name": "",
          "type": "uint256"
        }
      ],
      "stateMutability": "view",
      "type": "function"
    },
    {
      "inputs": [],
      "name": "depositTotal",
      "outputs": [
        {
          "internalType": "uint256",
          "name": "",
          "type": "uint256"
        }
      ],
      "stateMutability": "view",
      "type": "function"
    },
    {
      "inputs": [
        {
          "internalType": "address",
          "name": "",
          "type": "address"
        }
      ],
      "name": "index",
      "outputs": [
        {
          "internalType": "uint256",
          "name": "",
          "type": "uint256"
        }
      ],
      "stateMutability": "view",
      "type": "function"
    },
    {
      "inputs": [
        {
          "internalType": "address",
          "name": "",
          "type": "address"
        }
      ],
      "name": "initialDeposit",
      "outputs": [
        {
          "internalType": "uint256",
          "name": "",
          "type": "uint256"
        }
      ],
      "stateMutability": "view",
      "type": "function"
    },
    {
      "inputs": [
        {
          "internalType": "address",
          "name": "",
          "type": "address"
        }
      ],
      "name": "interestEarned",
      "outputs": [
        {
          "internalType": "uint256",
          "name": "",
          "type": "uint256"
        }
      ],
      "stateMutability": "view",
      "type": "function"
    },
    {
      "inputs": [],
      "name": "interestPrevPeriod",
      "outputs": [
        {
          "internalType": "uint256",
          "name": "",
          "type": "uint256"
        }
      ],
      "stateMutability": "view",
      "type": "function"
    },
    {
      "inputs": [],
      "name": "interval",
      "outputs": [
        {
          "internalType": "uint256",
          "name": "",
          "type": "uint256"
        }
      ],
      "stateMutability": "view",
      "type": "function"
    },
    {
      "inputs": [],
      "name": "isStudent",
      "outputs": [
        {
          "internalType": "bool",
          "name": "",
          "type": "bool"
        }
      ],
      "stateMutability": "view",
      "type": "function"
    },
    {
      "inputs": [],
      "name": "payout",
      "outputs": [],
      "stateMutability": "nonpayable",
      "type": "function"
    },
    {
      "inputs": [
        {
          "internalType": "bytes",
          "name": "",
          "type": "bytes"
        }
      ],
      "name": "performUpkeep",
      "outputs": [],
      "stateMutability": "nonpayable",
      "type": "function"
    },
    {
      "inputs": [],
      "name": "ping",
      "outputs": [],
      "stateMutability": "nonpayable",
      "type": "function"
    },
    {
      "inputs": [
        {
          "internalType": "address",
          "name": "",
          "type": "address"
        }
      ],
      "name": "pingCount",
      "outputs": [
        {
          "internalType": "uint256",
          "name": "",
          "type": "uint256"
        }
      ],
      "stateMutability": "view",
      "type": "function"
    },
    {
      "inputs": [
        {
          "internalType": "address",
          "name": "",
          "type": "address"
        }
      ],
      "name": "pingExpiresAt",
      "outputs": [
        {
          "internalType": "uint256",
          "name": "",
          "type": "uint256"
        }
      ],
      "stateMutability": "view",
      "type": "function"
    },
    {
      "inputs": [],
      "name": "prevATokenBal",
      "outputs": [
        {
          "internalType": "uint256",
          "name": "",
          "type": "uint256"
        }
      ],
      "stateMutability": "view",
      "type": "function"
    },
    {
      "inputs": [
        {
          "internalType": "address",
          "name": "",
          "type": "address"
        }
      ],
      "name": "recordedStartDay",
      "outputs": [
        {
          "internalType": "uint256",
          "name": "",
          "type": "uint256"
        }
      ],
      "stateMutability": "view",
      "type": "function"
    },
    {
      "inputs": [],
      "name": "register",
      "outputs": [],
      "stateMutability": "payable",
      "type": "function"
    },
    {
      "inputs": [
        {
          "internalType": "uint256",
          "name": "",
          "type": "uint256"
        }
      ],
      "name": "students",
      "outputs": [
        {
          "internalType": "address",
          "name": "",
          "type": "address"
        }
      ],
      "stateMutability": "view",
      "type": "function"
    },
    {
      "inputs": [],
      "name": "todayUTC0",
      "outputs": [
        {
          "internalType": "uint256",
          "name": "",
          "type": "uint256"
        }
      ],
      "stateMutability": "view",
      "type": "function"
    }
  ],
  "bytecode": "0x608060405273608d11e704bafb68cfeb154bf7fd641120e33ad4600860006101000a81548173ffffffffffffffffffffffffffffffffffffffff021916908373ffffffffffffffffffffffffffffffffffffffff1602179055507304930bb78fb25b66c78e8662f66ea2053abee86a600960006101000a81548173ffffffffffffffffffffffffffffffffffffffff021916908373ffffffffffffffffffffffffffffffffffffffff160217905550600960009054906101000a900473ffffffffffffffffffffffffffffffffffffffff16600a60006101000a81548173ffffffffffffffffffffffffffffffffffffffff021916908373ffffffffffffffffffffffffffffffffffffffff1602179055503480156200011e57600080fd5b5060405162001b7f38038062001b7f8339818101604052810190620001449190620001b7565b80600b81905550600b54600b54426200015e919062000247565b6200016a91906200027f565b600c8190555050620002e0565b600080fd5b6000819050919050565b62000191816200017c565b81146200019d57600080fd5b50565b600081519050620001b18162000186565b92915050565b600060208284031215620001d057620001cf62000177565b5b6000620001e084828501620001a0565b91505092915050565b7f4e487b7100000000000000000000000000000000000000000000000000000000600052601260045260246000fd5b7f4e487b7100000000000000000000000000000000000000000000000000000000600052601160045260246000fd5b600062000254826200017c565b915062000261836200017c565b925082620002745762000273620001e9565b5b828204905092915050565b60006200028c826200017c565b915062000299836200017c565b9250817fffffffffffffffffffffffffffffffffffffffffffffffffffffffffffffffff0483118215151615620002d557620002d462000218565b5b828202905092915050565b61188f80620002f06000396000f3fe6080604052600436106101145760003560e01c80634adae0da116100a05780636ddcdc5a116100645780636ddcdc5a146103825780636e04ff0d146103bf578063947a36fb146103fd5780639b3ffb5714610428578063fa3131a71461045357610114565b80634adae0da146102c157806351e0a6eb146102ec5780635c36b1861461031757806360506aff1461032e57806363bd1d4a1461036b57610114565b80631982f423116100e75780631982f423146101e95780631aa3a0081461022657806337502fec146102305780633c81bd1c1461025b5780634585e33b1461029857610114565b806303671ef11461011957806306ead22e1461014457806308df3a711461018157806318def8ef146101ac575b600080fd5b34801561012557600080fd5b5061012e610490565b60405161013b91906111ca565b60405180910390f35b34801561015057600080fd5b5061016b6004803603810190610166919061121b565b610496565b6040516101789190611289565b60405180910390f35b34801561018d57600080fd5b506101966104d5565b6040516101a391906111ca565b60405180910390f35b3480156101b857600080fd5b506101d360048036038101906101ce91906112d0565b6104db565b6040516101e091906111ca565b60405180910390f35b3480156101f557600080fd5b50610210600480360381019061020b91906112d0565b6104f3565b60405161021d91906111ca565b60405180910390f35b61022e61050b565b005b34801561023c57600080fd5b5061024561085f565b60405161025291906111ca565b60405180910390f35b34801561026757600080fd5b50610282600480360381019061027d91906112d0565b610865565b60405161028f91906111ca565b60405180910390f35b3480156102a457600080fd5b506102bf60048036038101906102ba9190611362565b61087d565b005b3480156102cd57600080fd5b506102d66108c5565b6040516102e391906111ca565b60405180910390f35b3480156102f857600080fd5b506103016108cb565b60405161030e91906113ca565b60405180910390f35b34801561032357600080fd5b5061032c610978565b005b34801561033a57600080fd5b50610355600480360381019061035091906112d0565b610a7e565b60405161036291906111ca565b60405180910390f35b34801561037757600080fd5b50610380610a96565b005b34801561038e57600080fd5b506103a960048036038101906103a491906112d0565b610d64565b6040516103b691906111ca565b60405180910390f35b3480156103cb57600080fd5b506103e660048036038101906103e19190611362565b610d7c565b6040516103f492919061147e565b60405180910390f35b34801561040957600080fd5b50610412610d9b565b60405161041f91906111ca565b60405180910390f35b34801561043457600080fd5b5061043d610da1565b60405161044a91906111ca565b60405180910390f35b34801561045f57600080fd5b5061047a600480360381019061047591906112d0565b610da7565b60405161048791906111ca565b60405180910390f35b600e5481565b600081815481106104a657600080fd5b906000526020600020016000915054906101000a900473ffffffffffffffffffffffffffffffffffffffff1681565b600f5481565b60016020528060005260406000206000915090505481565b60056020528060005260406000206000915090505481565b600015156105176108cb565b151514610559576040517f08c379a00000000000000000000000000000000000000000000000000000000081526004016105509061150b565b60405180910390fd5b6000341161059c576040517f08c379a000000000000000000000000000000000000000000000000000000000815260040161059390611577565b60405180910390fd5b6105a4610dbf565b6000339080600181540180825580915050600190039060005260206000200160009091909190916101000a81548173ffffffffffffffffffffffffffffffffffffffff021916908373ffffffffffffffffffffffffffffffffffffffff16021790555034600260003373ffffffffffffffffffffffffffffffffffffffff1673ffffffffffffffffffffffffffffffffffffffff16815260200190815260200160002081905550346007600082825461065d91906115c6565b92505081905550600b54600c5461067491906115c6565b600460003373ffffffffffffffffffffffffffffffffffffffff1673ffffffffffffffffffffffffffffffffffffffff16815260200190815260200160002081905550600b5460026106c6919061161c565b600c546106d391906115c6565b600560003373ffffffffffffffffffffffffffffffffffffffff1673ffffffffffffffffffffffffffffffffffffffff16815260200190815260200160002081905550600a60009054906101000a900473ffffffffffffffffffffffffffffffffffffffff1673ffffffffffffffffffffffffffffffffffffffff1663d0e30db0346040518263ffffffff1660e01b81526004016000604051808303818588803b15801561078057600080fd5b505af1158015610794573d6000803e3d6000fd5b5050505050600860009054906101000a900473ffffffffffffffffffffffffffffffffffffffff1673ffffffffffffffffffffffffffffffffffffffff166370a08231600960009054906101000a900473ffffffffffffffffffffffffffffffffffffffff166040518263ffffffff1660e01b81526004016108169190611289565b602060405180830381865afa158015610833573d6000803e3d6000fd5b505050506040513d601f19601f82011682018060405250810190610857919061168b565b600d81905550565b600d5481565b60036020528060005260406000206000915090505481565b600b54600c544261088e91906116b8565b11156108c157600b54600c60008282546108a891906115c6565b925050819055506108b7610dbf565b600e54600d819055505b5050565b60075481565b600080600090505b60008054905081101561096f573373ffffffffffffffffffffffffffffffffffffffff166000828154811061090b5761090a6116ec565b5b9060005260206000200160009054906101000a900473ffffffffffffffffffffffffffffffffffffffff1673ffffffffffffffffffffffffffffffffffffffff16141561095c576001915050610975565b80806109679061171b565b9150506108d3565b50600090505b90565b600015156109846108cb565b1515146109c6576040517f08c379a00000000000000000000000000000000000000000000000000000000081526004016109bd906117b0565b60405180910390fd5b600b5460026109d5919061161c565b600c546109e291906115c6565b600560003373ffffffffffffffffffffffffffffffffffffffff1673ffffffffffffffffffffffffffffffffffffffff168152602001908152602001600020819055506001600660003373ffffffffffffffffffffffffffffffffffffffff1673ffffffffffffffffffffffffffffffffffffffff1681526020019081526020016000206000828254610a7591906115c6565b92505081905550565b60026020528060005260406000206000915090505481565b610a9e610dbf565b6000600260003373ffffffffffffffffffffffffffffffffffffffff1673ffffffffffffffffffffffffffffffffffffffff16815260200190815260200160002054600360003373ffffffffffffffffffffffffffffffffffffffff1673ffffffffffffffffffffffffffffffffffffffff16815260200190815260200160002054610b2a91906115c6565b9050600260003373ffffffffffffffffffffffffffffffffffffffff1673ffffffffffffffffffffffffffffffffffffffff1681526020019081526020016000205460076000828254610b7d91906116b8565b925050819055506000600360003373ffffffffffffffffffffffffffffffffffffffff1673ffffffffffffffffffffffffffffffffffffffff168152602001908152602001600020819055506000600260003373ffffffffffffffffffffffffffffffffffffffff1673ffffffffffffffffffffffffffffffffffffffff16815260200190815260200160002081905550600a60009054906101000a900473ffffffffffffffffffffffffffffffffffffffff1673ffffffffffffffffffffffffffffffffffffffff1663f3fef3a333836040518363ffffffff1660e01b8152600401610c6b9291906117d0565b600060405180830381600087803b158015610c8557600080fd5b505af1158015610c99573d6000803e3d6000fd5b50505050600860009054906101000a900473ffffffffffffffffffffffffffffffffffffffff1673ffffffffffffffffffffffffffffffffffffffff166370a08231600960009054906101000a900473ffffffffffffffffffffffffffffffffffffffff166040518263ffffffff1660e01b8152600401610d1a9190611289565b602060405180830381865afa158015610d37573d6000803e3d6000fd5b505050506040513d601f19601f82011682018060405250810190610d5b919061168b565b600d8190555050565b60046020528060005260406000206000915090505481565b60006060600b54600c5442610d9191906116b8565b1191509250929050565b600b5481565b600c5481565b60066020528060005260406000206000915090505481565b600860009054906101000a900473ffffffffffffffffffffffffffffffffffffffff1673ffffffffffffffffffffffffffffffffffffffff166370a08231600960009054906101000a900473ffffffffffffffffffffffffffffffffffffffff166040518263ffffffff1660e01b8152600401610e3c9190611289565b602060405180830381865afa158015610e59573d6000803e3d6000fd5b505050506040513d601f19601f82011682018060405250810190610e7d919061168b565b600e81905550600d54600e54610e9391906116b8565b600f8190555060008060005b600080549050811015610fc5576000808281548110610ec157610ec06116ec565b5b9060005260206000200160009054906101000a900473ffffffffffffffffffffffffffffffffffffffff1690506000600260008373ffffffffffffffffffffffffffffffffffffffff1673ffffffffffffffffffffffffffffffffffffffff16815260200190815260200160002054905042600560008473ffffffffffffffffffffffffffffffffffffffff1673ffffffffffffffffffffffffffffffffffffffff168152602001908152602001600020541015610fb05760075481600f54610f8a919061161c565b610f949190611828565b85610f9f91906115c6565b94508084610fad91906115c6565b93505b50508080610fbd9061171b565b915050610e9f565b5060005b6000805490508110156111ac576000808281548110610feb57610fea6116ec565b5b9060005260206000200160009054906101000a900473ffffffffffffffffffffffffffffffffffffffff1690506000600260008373ffffffffffffffffffffffffffffffffffffffff1673ffffffffffffffffffffffffffffffffffffffff1681526020019081526020016000205490508360075411156111975742600560008473ffffffffffffffffffffffffffffffffffffffff1673ffffffffffffffffffffffffffffffffffffffff16815260200190815260200160002054106111965760075481600f546110bd919061161c565b6110c79190611828565b600360008473ffffffffffffffffffffffffffffffffffffffff1673ffffffffffffffffffffffffffffffffffffffff168152602001908152602001600020600082825461111591906115c6565b925050819055508360075461112a91906116b8565b8186611136919061161c565b6111409190611828565b600360008473ffffffffffffffffffffffffffffffffffffffff1673ffffffffffffffffffffffffffffffffffffffff168152602001908152602001600020600082825461118e91906115c6565b925050819055505b5b505080806111a49061171b565b915050610fc9565b505050565b6000819050919050565b6111c4816111b1565b82525050565b60006020820190506111df60008301846111bb565b92915050565b600080fd5b600080fd5b6111f8816111b1565b811461120357600080fd5b50565b600081359050611215816111ef565b92915050565b600060208284031215611231576112306111e5565b5b600061123f84828501611206565b91505092915050565b600073ffffffffffffffffffffffffffffffffffffffff82169050919050565b600061127382611248565b9050919050565b61128381611268565b82525050565b600060208201905061129e600083018461127a565b92915050565b6112ad81611268565b81146112b857600080fd5b50565b6000813590506112ca816112a4565b92915050565b6000602082840312156112e6576112e56111e5565b5b60006112f4848285016112bb565b91505092915050565b600080fd5b600080fd5b600080fd5b60008083601f840112611322576113216112fd565b5b8235905067ffffffffffffffff81111561133f5761133e611302565b5b60208301915083600182028301111561135b5761135a611307565b5b9250929050565b60008060208385031215611379576113786111e5565b5b600083013567ffffffffffffffff811115611397576113966111ea565b5b6113a38582860161130c565b92509250509250929050565b60008115159050919050565b6113c4816113af565b82525050565b60006020820190506113df60008301846113bb565b92915050565b600081519050919050565b600082825260208201905092915050565b60005b8381101561141f578082015181840152602081019050611404565b8381111561142e576000848401525b50505050565b6000601f19601f8301169050919050565b6000611450826113e5565b61145a81856113f0565b935061146a818560208601611401565b61147381611434565b840191505092915050565b600060408201905061149360008301856113bb565b81810360208301526114a58184611445565b90509392505050565b600082825260208201905092915050565b7f596f752061726520616c72656164792072656769737465726564000000000000600082015250565b60006114f5601a836114ae565b9150611500826114bf565b602082019050919050565b60006020820190508181036000830152611524816114e8565b9050919050565b7f6e6f7420656e6f7567682066756e6473206465706f7369746564000000000000600082015250565b6000611561601a836114ae565b915061156c8261152b565b602082019050919050565b6000602082019050818103600083015261159081611554565b9050919050565b7f4e487b7100000000000000000000000000000000000000000000000000000000600052601160045260246000fd5b60006115d1826111b1565b91506115dc836111b1565b9250827fffffffffffffffffffffffffffffffffffffffffffffffffffffffffffffffff0382111561161157611610611597565b5b828201905092915050565b6000611627826111b1565b9150611632836111b1565b9250817fffffffffffffffffffffffffffffffffffffffffffffffffffffffffffffffff048311821515161561166b5761166a611597565b5b828202905092915050565b600081519050611685816111ef565b92915050565b6000602082840312156116a1576116a06111e5565b5b60006116af84828501611676565b91505092915050565b60006116c3826111b1565b91506116ce836111b1565b9250828210156116e1576116e0611597565b5b828203905092915050565b7f4e487b7100000000000000000000000000000000000000000000000000000000600052603260045260246000fd5b6000611726826111b1565b91507fffffffffffffffffffffffffffffffffffffffffffffffffffffffffffffffff82141561175957611758611597565b5b600182019050919050565b7f596f75206d757374206265207265676973746572656420746f2070696e670000600082015250565b600061179a601e836114ae565b91506117a582611764565b602082019050919050565b600060208201905081810360008301526117c98161178d565b9050919050565b60006040820190506117e5600083018561127a565b6117f260208301846111bb565b9392505050565b7f4e487b7100000000000000000000000000000000000000000000000000000000600052601260045260246000fd5b6000611833826111b1565b915061183e836111b1565b92508261184e5761184d6117f9565b5b82820490509291505056fea2646970667358221220687fb3e1a6abd6d21673bfbd5decc2912d54fce74bd64ed34c3136bd93f3887a64736f6c634300080a0033",
  "linkReferences": {},
  "deployedLinkReferences": {}
}