{
  "_format": "hh-sol-artifact-1",
  "contractName": "InterestDistributionTest",
  "sourceName": "contracts/InterestDistributionTest.sol",
  "abi": [
    {
      "inputs": [
        {
          "internalType": "uint256",
          "name": "_interval",
          "type": "uint256"
        }
      ],
      "stateMutability": "nonpayable",
      "type": "constructor"
    },
    {
      "inputs": [
        {
          "internalType": "bytes",
          "name": "",
          "type": "bytes"
        }
      ],
      "name": "checkUpkeep",
      "outputs": [
        {
          "internalType": "bool",
          "name": "upkeepNeeded",
          "type": "bool"
        },
        {
          "internalType": "bytes",
          "name": "",
          "type": "bytes"
        }
      ],
      "stateMutability": "view",
      "type": "function"
    },
    {
      "inputs": [],
      "name": "curATokenBal",
      "outputs": [
        {
          "internalType": "uint256",
          "name": "",
          "type": "uint256"
        }
      ],
      "stateMutability": "view",
      "type": "function"
    },
    {
      "inputs": [],
      "name": "depositTotal",
      "outputs": [
        {
          "internalType": "uint256",
          "name": "",
          "type": "uint256"
        }
      ],
      "stateMutability": "view",
      "type": "function"
    },
    {
      "inputs": [
        {
          "internalType": "address",
          "name": "",
          "type": "address"
        }
      ],
      "name": "index",
      "outputs": [
        {
          "internalType": "uint256",
          "name": "",
          "type": "uint256"
        }
      ],
      "stateMutability": "view",
      "type": "function"
    },
    {
      "inputs": [
        {
          "internalType": "address",
          "name": "",
          "type": "address"
        }
      ],
      "name": "initialDeposit",
      "outputs": [
        {
          "internalType": "uint256",
          "name": "",
          "type": "uint256"
        }
      ],
      "stateMutability": "view",
      "type": "function"
    },
    {
      "inputs": [
        {
          "internalType": "address",
          "name": "",
          "type": "address"
        }
      ],
      "name": "interestEarned",
      "outputs": [
        {
          "internalType": "uint256",
          "name": "",
          "type": "uint256"
        }
      ],
      "stateMutability": "view",
      "type": "function"
    },
    {
      "inputs": [],
      "name": "interestPrevPeriod",
      "outputs": [
        {
          "internalType": "uint256",
          "name": "",
          "type": "uint256"
        }
      ],
      "stateMutability": "view",
      "type": "function"
    },
    {
      "inputs": [],
      "name": "interval",
      "outputs": [
        {
          "internalType": "uint256",
          "name": "",
          "type": "uint256"
        }
      ],
      "stateMutability": "view",
      "type": "function"
    },
    {
      "inputs": [
        {
          "internalType": "address",
          "name": "stu",
          "type": "address"
        }
      ],
      "name": "isStudent",
      "outputs": [
        {
          "internalType": "bool",
          "name": "",
          "type": "bool"
        }
      ],
      "stateMutability": "view",
      "type": "function"
    },
    {
      "inputs": [],
      "name": "payout",
      "outputs": [],
      "stateMutability": "nonpayable",
      "type": "function"
    },
    {
      "inputs": [
        {
          "internalType": "bytes",
          "name": "",
          "type": "bytes"
        }
      ],
      "name": "performUpkeep",
      "outputs": [],
      "stateMutability": "nonpayable",
      "type": "function"
    },
    {
      "inputs": [],
      "name": "ping",
      "outputs": [],
      "stateMutability": "nonpayable",
      "type": "function"
    },
    {
      "inputs": [
        {
          "internalType": "address",
          "name": "",
          "type": "address"
        }
      ],
      "name": "pingCount",
      "outputs": [
        {
          "internalType": "uint256",
          "name": "",
          "type": "uint256"
        }
      ],
      "stateMutability": "view",
      "type": "function"
    },
    {
      "inputs": [
        {
          "internalType": "address",
          "name": "",
          "type": "address"
        }
      ],
      "name": "pingExpiresAt",
      "outputs": [
        {
          "internalType": "uint256",
          "name": "",
          "type": "uint256"
        }
      ],
      "stateMutability": "view",
      "type": "function"
    },
    {
      "inputs": [],
      "name": "prevATokenBal",
      "outputs": [
        {
          "internalType": "uint256",
          "name": "",
          "type": "uint256"
        }
      ],
      "stateMutability": "view",
      "type": "function"
    },
    {
      "inputs": [
        {
          "internalType": "address",
          "name": "",
          "type": "address"
        }
      ],
      "name": "recordedStartDay",
      "outputs": [
        {
          "internalType": "uint256",
          "name": "",
          "type": "uint256"
        }
      ],
      "stateMutability": "view",
      "type": "function"
    },
    {
      "inputs": [],
      "name": "register",
      "outputs": [],
      "stateMutability": "payable",
      "type": "function"
    },
    {
      "inputs": [
        {
          "internalType": "uint256",
          "name": "",
          "type": "uint256"
        }
      ],
      "name": "students",
      "outputs": [
        {
          "internalType": "address",
          "name": "",
          "type": "address"
        }
      ],
      "stateMutability": "view",
      "type": "function"
    },
    {
      "inputs": [],
      "name": "todayUTC0",
      "outputs": [
        {
          "internalType": "uint256",
          "name": "",
          "type": "uint256"
        }
      ],
      "stateMutability": "view",
      "type": "function"
    }
  ],
  "bytecode": "0x608060405273608d11e704bafb68cfeb154bf7fd641120e33ad4600860006101000a81548173ffffffffffffffffffffffffffffffffffffffff021916908373ffffffffffffffffffffffffffffffffffffffff1602179055507304930bb78fb25b66c78e8662f66ea2053abee86a600960006101000a81548173ffffffffffffffffffffffffffffffffffffffff021916908373ffffffffffffffffffffffffffffffffffffffff160217905550600960009054906101000a900473ffffffffffffffffffffffffffffffffffffffff16600a60006101000a81548173ffffffffffffffffffffffffffffffffffffffff021916908373ffffffffffffffffffffffffffffffffffffffff1602179055503480156200011e57600080fd5b5060405162001b9538038062001b958339818101604052810190620001449190620001b7565b80600b81905550600b54600b54426200015e919062000247565b6200016a91906200027f565b600c8190555050620002e0565b600080fd5b6000819050919050565b62000191816200017c565b81146200019d57600080fd5b50565b600081519050620001b18162000186565b92915050565b600060208284031215620001d057620001cf62000177565b5b6000620001e084828501620001a0565b91505092915050565b7f4e487b7100000000000000000000000000000000000000000000000000000000600052601260045260246000fd5b7f4e487b7100000000000000000000000000000000000000000000000000000000600052601160045260246000fd5b600062000254826200017c565b915062000261836200017c565b925082620002745762000273620001e9565b5b828204905092915050565b60006200028c826200017c565b915062000299836200017c565b9250817fffffffffffffffffffffffffffffffffffffffffffffffffffffffffffffffff0483118215151615620002d557620002d462000218565b5b828202905092915050565b6118a580620002f06000396000f3fe6080604052600436106101145760003560e01c80634adae0da116100a05780636e04ff0d116100645780636e04ff0d1461039457806382f7d392146103d2578063947a36fb1461040f5780639b3ffb571461043a578063fa3131a71461046557610114565b80634adae0da146102c15780635c36b186146102ec57806360506aff1461030357806363bd1d4a146103405780636ddcdc5a1461035757610114565b80631982f423116100e75780631982f423146101e95780631aa3a0081461022657806337502fec146102305780633c81bd1c1461025b5780634585e33b1461029857610114565b806303671ef11461011957806306ead22e1461014457806308df3a711461018157806318def8ef146101ac575b600080fd5b34801561012557600080fd5b5061012e6104a2565b60405161013b91906111e0565b60405180910390f35b34801561015057600080fd5b5061016b60048036038101906101669190611231565b6104a8565b604051610178919061129f565b60405180910390f35b34801561018d57600080fd5b506101966104e7565b6040516101a391906111e0565b60405180910390f35b3480156101b857600080fd5b506101d360048036038101906101ce91906112e6565b6104ed565b6040516101e091906111e0565b60405180910390f35b3480156101f557600080fd5b50610210600480360381019061020b91906112e6565b610505565b60405161021d91906111e0565b60405180910390f35b61022e61051d565b005b34801561023c57600080fd5b50610245610872565b60405161025291906111e0565b60405180910390f35b34801561026757600080fd5b50610282600480360381019061027d91906112e6565b610878565b60405161028f91906111e0565b60405180910390f35b3480156102a457600080fd5b506102bf60048036038101906102ba9190611378565b610890565b005b3480156102cd57600080fd5b506102d66108d8565b6040516102e391906111e0565b60405180910390f35b3480156102f857600080fd5b506103016108de565b005b34801561030f57600080fd5b5061032a600480360381019061032591906112e6565b6109e5565b60405161033791906111e0565b60405180910390f35b34801561034c57600080fd5b506103556109fd565b005b34801561036357600080fd5b5061037e600480360381019061037991906112e6565b610ccb565b60405161038b91906111e0565b60405180910390f35b3480156103a057600080fd5b506103bb60048036038101906103b69190611378565b610ce3565b6040516103c9929190611479565b60405180910390f35b3480156103de57600080fd5b506103f960048036038101906103f491906112e6565b610d02565b60405161040691906114a9565b60405180910390f35b34801561041b57600080fd5b50610424610db1565b60405161043191906111e0565b60405180910390f35b34801561044657600080fd5b5061044f610db7565b60405161045c91906111e0565b60405180910390f35b34801561047157600080fd5b5061048c600480360381019061048791906112e6565b610dbd565b60405161049991906111e0565b60405180910390f35b600e5481565b600081815481106104b857600080fd5b906000526020600020016000915054906101000a900473ffffffffffffffffffffffffffffffffffffffff1681565b600f5481565b60016020528060005260406000206000915090505481565b60056020528060005260406000206000915090505481565b6000151561052a33610d02565b15151461056c576040517f08c379a000000000000000000000000000000000000000000000000000000000815260040161056390611521565b60405180910390fd5b600034116105af576040517f08c379a00000000000000000000000000000000000000000000000000000000081526004016105a69061158d565b60405180910390fd5b6105b7610dd5565b6000339080600181540180825580915050600190039060005260206000200160009091909190916101000a81548173ffffffffffffffffffffffffffffffffffffffff021916908373ffffffffffffffffffffffffffffffffffffffff16021790555034600260003373ffffffffffffffffffffffffffffffffffffffff1673ffffffffffffffffffffffffffffffffffffffff16815260200190815260200160002081905550346007600082825461067091906115dc565b92505081905550600b54600c5461068791906115dc565b600460003373ffffffffffffffffffffffffffffffffffffffff1673ffffffffffffffffffffffffffffffffffffffff16815260200190815260200160002081905550600b5460026106d99190611632565b600c546106e691906115dc565b600560003373ffffffffffffffffffffffffffffffffffffffff1673ffffffffffffffffffffffffffffffffffffffff16815260200190815260200160002081905550600a60009054906101000a900473ffffffffffffffffffffffffffffffffffffffff1673ffffffffffffffffffffffffffffffffffffffff1663d0e30db0346040518263ffffffff1660e01b81526004016000604051808303818588803b15801561079357600080fd5b505af11580156107a7573d6000803e3d6000fd5b5050505050600860009054906101000a900473ffffffffffffffffffffffffffffffffffffffff1673ffffffffffffffffffffffffffffffffffffffff166370a08231600960009054906101000a900473ffffffffffffffffffffffffffffffffffffffff166040518263ffffffff1660e01b8152600401610829919061129f565b602060405180830381865afa158015610846573d6000803e3d6000fd5b505050506040513d601f19601f8201168201806040525081019061086a91906116a1565b600d81905550565b600d5481565b60036020528060005260406000206000915090505481565b600b54600c54426108a191906116ce565b11156108d457600b54600c60008282546108bb91906115dc565b925050819055506108ca610dd5565b600e54600d819055505b5050565b60075481565b600115156108eb33610d02565b15151461092d576040517f08c379a00000000000000000000000000000000000000000000000000000000081526004016109249061174e565b60405180910390fd5b600b54600261093c9190611632565b600c5461094991906115dc565b600560003373ffffffffffffffffffffffffffffffffffffffff1673ffffffffffffffffffffffffffffffffffffffff168152602001908152602001600020819055506001600660003373ffffffffffffffffffffffffffffffffffffffff1673ffffffffffffffffffffffffffffffffffffffff16815260200190815260200160002060008282546109dc91906115dc565b92505081905550565b60026020528060005260406000206000915090505481565b610a05610dd5565b6000600260003373ffffffffffffffffffffffffffffffffffffffff1673ffffffffffffffffffffffffffffffffffffffff16815260200190815260200160002054600360003373ffffffffffffffffffffffffffffffffffffffff1673ffffffffffffffffffffffffffffffffffffffff16815260200190815260200160002054610a9191906115dc565b9050600260003373ffffffffffffffffffffffffffffffffffffffff1673ffffffffffffffffffffffffffffffffffffffff1681526020019081526020016000205460076000828254610ae491906116ce565b925050819055506000600360003373ffffffffffffffffffffffffffffffffffffffff1673ffffffffffffffffffffffffffffffffffffffff168152602001908152602001600020819055506000600260003373ffffffffffffffffffffffffffffffffffffffff1673ffffffffffffffffffffffffffffffffffffffff16815260200190815260200160002081905550600a60009054906101000a900473ffffffffffffffffffffffffffffffffffffffff1673ffffffffffffffffffffffffffffffffffffffff1663f3fef3a333836040518363ffffffff1660e01b8152600401610bd292919061176e565b600060405180830381600087803b158015610bec57600080fd5b505af1158015610c00573d6000803e3d6000fd5b50505050600860009054906101000a900473ffffffffffffffffffffffffffffffffffffffff1673ffffffffffffffffffffffffffffffffffffffff166370a08231600960009054906101000a900473ffffffffffffffffffffffffffffffffffffffff166040518263ffffffff1660e01b8152600401610c81919061129f565b602060405180830381865afa158015610c9e573d6000803e3d6000fd5b505050506040513d601f19601f82011682018060405250810190610cc291906116a1565b600d8190555050565b60046020528060005260406000206000915090505481565b60006060600b54600c5442610cf891906116ce565b1191509250929050565b600080600090505b600080549050811015610da6578273ffffffffffffffffffffffffffffffffffffffff1660008281548110610d4257610d41611797565b5b9060005260206000200160009054906101000a900473ffffffffffffffffffffffffffffffffffffffff1673ffffffffffffffffffffffffffffffffffffffff161415610d93576001915050610dac565b8080610d9e906117c6565b915050610d0a565b50600090505b919050565b600b5481565b600c5481565b60066020528060005260406000206000915090505481565b600860009054906101000a900473ffffffffffffffffffffffffffffffffffffffff1673ffffffffffffffffffffffffffffffffffffffff166370a08231600960009054906101000a900473ffffffffffffffffffffffffffffffffffffffff166040518263ffffffff1660e01b8152600401610e52919061129f565b602060405180830381865afa158015610e6f573d6000803e3d6000fd5b505050506040513d601f19601f82011682018060405250810190610e9391906116a1565b600e81905550600d54600e54610ea991906116ce565b600f8190555060008060005b600080549050811015610fdb576000808281548110610ed757610ed6611797565b5b9060005260206000200160009054906101000a900473ffffffffffffffffffffffffffffffffffffffff1690506000600260008373ffffffffffffffffffffffffffffffffffffffff1673ffffffffffffffffffffffffffffffffffffffff16815260200190815260200160002054905042600560008473ffffffffffffffffffffffffffffffffffffffff1673ffffffffffffffffffffffffffffffffffffffff168152602001908152602001600020541015610fc65760075481600f54610fa09190611632565b610faa919061183e565b85610fb591906115dc565b94508084610fc391906115dc565b93505b50508080610fd3906117c6565b915050610eb5565b5060005b6000805490508110156111c257600080828154811061100157611000611797565b5b9060005260206000200160009054906101000a900473ffffffffffffffffffffffffffffffffffffffff1690506000600260008373ffffffffffffffffffffffffffffffffffffffff1673ffffffffffffffffffffffffffffffffffffffff1681526020019081526020016000205490508360075411156111ad5742600560008473ffffffffffffffffffffffffffffffffffffffff1673ffffffffffffffffffffffffffffffffffffffff16815260200190815260200160002054106111ac5760075481600f546110d39190611632565b6110dd919061183e565b600360008473ffffffffffffffffffffffffffffffffffffffff1673ffffffffffffffffffffffffffffffffffffffff168152602001908152602001600020600082825461112b91906115dc565b925050819055508360075461114091906116ce565b818661114c9190611632565b611156919061183e565b600360008473ffffffffffffffffffffffffffffffffffffffff1673ffffffffffffffffffffffffffffffffffffffff16815260200190815260200160002060008282546111a491906115dc565b925050819055505b5b505080806111ba906117c6565b915050610fdf565b505050565b6000819050919050565b6111da816111c7565b82525050565b60006020820190506111f560008301846111d1565b92915050565b600080fd5b600080fd5b61120e816111c7565b811461121957600080fd5b50565b60008135905061122b81611205565b92915050565b600060208284031215611247576112466111fb565b5b60006112558482850161121c565b91505092915050565b600073ffffffffffffffffffffffffffffffffffffffff82169050919050565b60006112898261125e565b9050919050565b6112998161127e565b82525050565b60006020820190506112b46000830184611290565b92915050565b6112c38161127e565b81146112ce57600080fd5b50565b6000813590506112e0816112ba565b92915050565b6000602082840312156112fc576112fb6111fb565b5b600061130a848285016112d1565b91505092915050565b600080fd5b600080fd5b600080fd5b60008083601f84011261133857611337611313565b5b8235905067ffffffffffffffff81111561135557611354611318565b5b6020830191508360018202830111156113715761137061131d565b5b9250929050565b6000806020838503121561138f5761138e6111fb565b5b600083013567ffffffffffffffff8111156113ad576113ac611200565b5b6113b985828601611322565b92509250509250929050565b60008115159050919050565b6113da816113c5565b82525050565b600081519050919050565b600082825260208201905092915050565b60005b8381101561141a5780820151818401526020810190506113ff565b83811115611429576000848401525b50505050565b6000601f19601f8301169050919050565b600061144b826113e0565b61145581856113eb565b93506114658185602086016113fc565b61146e8161142f565b840191505092915050565b600060408201905061148e60008301856113d1565b81810360208301526114a08184611440565b90509392505050565b60006020820190506114be60008301846113d1565b92915050565b600082825260208201905092915050565b7f596f752061726520616c72656164792072656769737465726564000000000000600082015250565b600061150b601a836114c4565b9150611516826114d5565b602082019050919050565b6000602082019050818103600083015261153a816114fe565b9050919050565b7f6e6f7420656e6f7567682066756e6473206465706f7369746564000000000000600082015250565b6000611577601a836114c4565b915061158282611541565b602082019050919050565b600060208201905081810360008301526115a68161156a565b9050919050565b7f4e487b7100000000000000000000000000000000000000000000000000000000600052601160045260246000fd5b60006115e7826111c7565b91506115f2836111c7565b9250827fffffffffffffffffffffffffffffffffffffffffffffffffffffffffffffffff03821115611627576116266115ad565b5b828201905092915050565b600061163d826111c7565b9150611648836111c7565b9250817fffffffffffffffffffffffffffffffffffffffffffffffffffffffffffffffff0483118215151615611681576116806115ad565b5b828202905092915050565b60008151905061169b81611205565b92915050565b6000602082840312156116b7576116b66111fb565b5b60006116c58482850161168c565b91505092915050565b60006116d9826111c7565b91506116e4836111c7565b9250828210156116f7576116f66115ad565b5b828203905092915050565b7f596f75206d757374206265207265676973746572656420746f2070696e670000600082015250565b6000611738601e836114c4565b915061174382611702565b602082019050919050565b600060208201905081810360008301526117678161172b565b9050919050565b60006040820190506117836000830185611290565b61179060208301846111d1565b9392505050565b7f4e487b7100000000000000000000000000000000000000000000000000000000600052603260045260246000fd5b60006117d1826111c7565b91507fffffffffffffffffffffffffffffffffffffffffffffffffffffffffffffffff821415611804576118036115ad565b5b600182019050919050565b7f4e487b7100000000000000000000000000000000000000000000000000000000600052601260045260246000fd5b6000611849826111c7565b9150611854836111c7565b9250826118645761186361180f565b5b82820490509291505056fea26469706673582212203425ae63d1c8fe6882e0a8453ea5eeb7366beb76a43839bec83b45fa6412c85f64736f6c634300080a0033",
  "linkReferences": {},
  "deployedLinkReferences": {}
}